:020000040800F2
:1000000000000220DD250008350300082D0300084C
:100010002F0300083103000833030008000000002C
:10002000000000000000000000000000370300088E
:1000300039030008000000003B03000835040008F5
:100040002126000821260008212600082126000874
:100050002126000821260008212600082126000864
:100060002126000821260008212600082126000854
:100070002126000821260008612400082126000806
:100080002126000821260008212600082126000834
:100090002126000821260008212600082126000824
:1000A0002126000821260008212600082126000814
:1000B0002126000821260008212600082126000804
:1000C00021260008212600082126000821260008F4
:1000D00021260008212600082126000821260008E4
:1000E00021260008212600082126000821260008D4
:1000F00021260008212600082126000821260008C4
:1001000021260008212600082126000821260008B3
:1001100021260008212600082126000821260008A3
:100120002126000821260008212600082126000893
:100130002126000821260008212600082126000883
:100140002126000821260008212600082126000873
:100150002126000821260008212600082126000863
:100160002126000821260008212600082126000853
:100170002126000821260008212600082126000843
:100180002126000821260008212600082126000833
:100190002126000821260008212600082126000823
:1001A0002126000821260008212600080000000062
:1001B0003B4B1A68002142F001021A6099601A68EC
:1001C00022F0847222F480321A60364A5A601A6829
:1001D00082B022F480221A60D960009101911A68DD
:1001E00042F480321A601A6802F400320192009AD6
:1001F00001320092019A1AB9009AB2F5A04FF2D1D9
:10020000274B1B6813F4003318BF01230193019B94
:10021000012B0CD0224B9A6822F400029A60224AE9
:10022000C3F884201A6842F080621A602FE01C4BE9
:100230001E491A6C42F080521A640A6842F4404225
:100240000A609A689A609A6842F400429A609A68D2
:1002500042F4A0529A60164A5A601A6842F08072BC
:100260001A6019680E4A8901FBD5124B40F20561EC
:100270001960936823F003039360936843F00203CB
:100280009360936803F00C03082BFAD1C2E71A6855
:100290001201FCD5084B4FF000629A6002B0704723
:1002A0000038024010300024C0430060007000405D
:1002B000105A4007003C024000ED00E0174A184980
:1002C000936803F00C03042B03D0082B03D0154BC9
:1002D00018E0154B16E05068536810F4800F03F0D7
:1002E0003F03506814BF104A0E4AB2FBF3F30B4AA7
:1002F0005268C2F30142C0F38810013243435200F6
:10030000B3FBF2F30B60054B9B68C3F303130B4481
:100310001A790B68D3400B60704700BF0038024069
:10032000040000200024F40000127A00FEE7FEE73B
:10033000FEE7FEE7704770477047704710B5431EF1
:100340000A44914204D011F8014B03F8014FF8E739
:1003500010BD244B1A78012A194610D159884A1C1D
:1003600092B2B1F5C87F5A8004D900225A804FF466
:10037000007233E0C82A33D14FF4007212E01A78C9
:10038000032A12D159884A1C92B2B1F5C87F5A800B
:1003900004D900225A804FF480621FE0C82A1FD17E
:1003A0004FF48062104B1A8370471A7802F0FF00F6
:1003B000B2B95A88B2F5C87F07D10B4B4FF4006031
:1003C00018834FF48050188302E0B2F5487F02D0C2
:1003D00001324A80704758804FF48052024B5A8352
:1003E000704700BF70040020000002400F4B104A0D
:1003F0001B69918813F4804F4EF2010308BF4FF43C
:10040000604343EA41039BB2B3F57F4F938002D12F
:100410000123D38070474EF20F018B4205D113891F
:100420001BB9D388012B08BF937270470018024094
:100430007004002008B5054A136801331360FFF704
:1004400088FFBDE80840FFF7D1BF00BF3446002059
:100450002DE9F04F454ADFF81CA1D2F89440D57A37
:1004600092F89CE085B000260294D2F8984003945C
:10047000D2F8A04001900831B046B4464FF00809C8
:100480003746002B62D00198043BB0F904C0083015
:100490009BB201902DB11CF5967FB4BF00250125BC
:1004A00004E0BCF5C87FD4BF00250125304815B154
:1004B000A0F8189001E0A0F81A90BAF800B0BBF1CB
:1004C000000F27D1754503D10134AE46012625E042
:1004D0000298A04205D90398A0428CBF00240124B1
:1004E00000E0022492F8A46026B12048013E80F882
:1004F000A4600224D2F8906002EB060E013606F0EA
:100500007F06C2F8906001268EF80C40B046AE46D9
:10051000002403E00BF1FF3BAAF800B092F800B012
:1005200021F8027CBBF1020F19BF21F808CC21F899
:1005300004CC21F8087C21F8067C0CBF21F8047C4F
:1005400021F8067C4FF0010C08319AE7BCF1000F4E
:1005500000D0D572B8F1000F01D082F89CE00EB146
:10056000C2F8A04005B0BDE8F08F00BF70040020C5
:10057000000002401800002008B501F0C3FC01F0A3
:10058000DDFC064B00BF013BFCD14BF6803001F097
:100590003FFE034B4FF480421A6008BD40420F00FB
:1005A00000E100E008B5002240F25271044800F07A
:1005B0000BF9044B00221A60BDE8084000F032B885
:1005C0001D05002034460020144BFF2183F8AF1096
:1005D000202183F8B0100C21C3F894100621C3F831
:1005E0009810042183F8A4100D4900228968C3F8EB
:1005F0009020A3F8BC21C3F88C2083F8AE20A3F888
:10060000B22083F89C20C3F8A020C3F8A8101A8158
:10061000A3F8BE2183F8C0211A707047700400202F
:10062000180000202DE9F04F85B002A8454D464C3A
:10063000464F00F0C1FC01214D2000F031FE0026A4
:100640000122022302A942488DF80F2001928DF861
:100650000C608DF80D60029300F06CFC4FF40043C9
:1006600002A92846029300F065FC4FF4804302A9DA
:10067000204602934FF4006B00F05CFC02A9204678
:100680004FF48068CDF808B000F054FC02A9204671
:10069000CDF8088000F04EFC4FF4005302A920462C
:1006A00002934FF4805A00F045FC02A920464FF413
:1006B0000079CDF808A000F03DFC02A92046CDF855
:1006C000089000F037FC08230DEB03013846029335
:1006D000009300F02FFC019A8DF80E608DF80F60EA
:1006E00002A9102638468DF80C20029600F022FC54
:1006F0007E8302A980262046029600F01BFC009B08
:10070000268302A92846029300F014FC02A9284679
:10071000CDF808B000F00EFC02A92846CDF808A0DC
:1007200000F008FC02A92846CDF8089000F002FC71
:1007300002A92846CDF8088000F0FCFB05B0BDE812
:10074000F08F00BF0000024000180240000C024081
:1007500000080240144B15494FF0FF32C3F88020C7
:10076000C3F88420C3F88021C3F88421042243F80D
:10077000F02C0F4B1A6842F001021A6008680D4A0B
:1007800002400A601A6822F0847222F480321A60F1
:100790001A6822F480221A600B6823F4FE030B60AF
:1007A000054B00221A60704700E100E0403A024029
:1007B000003802400000FFF8803C024043680268B5
:1007C00082F30888184700BF10B51446FFF7F0FC05
:1007D0003CB14FF400414FF00060BDE8104000F024
:1007E00055B810BD054B064A5A60064AF02182F8FA
:1007F000231000229A6007221A60704710E000E080
:100800003F90020000ED00E040F0BF60024B40F47A
:100810000030D860704700BF00ED00E0C278037878
:1008200030B51AB3174A4578D168C943C1F30221DC
:10083000C1F10402D2B205FA02F2D4B20F220A4187
:1008400081780A40224303F1604303F561431201BA
:10085000D2B283F8002303780122590903F01F0361
:1008600002FA03F3084A42F8213030BD5A09012147
:1008700003F01F0301FA03F32032034941F8223049
:1008800030BD00BF00ED00E000E100E021F060417C
:1008900021F07F01014B08439860704700ED00E0B4
:1008A000044B1A6909B1104301E022EA0000186103
:1008B000704700BF00ED00E0044B1A6804280CBF2D
:1008C00042F0040222F004021A60704710E000E0D7
:1008D000014BC0B218707047003C0240044B1A68CC
:1008E00010B142F4807201E022F480721A60704705
:1008F000003C0240044B1A6810B142F4007201E05F
:1009000022F400721A607047003C0240044B1A68DF
:1009100010B142F4806201E022F480621A607047F4
:10092000003C0240024A136843F4006313607047BE
:10093000003C0240024A136843F48053136070473E
:10094000003C0240044B1A69002ABFBF034A5A60A8
:1009500002F188325A607047003C0240230167452B
:10096000024A136943F0004313617047003C0240A0
:10097000044B5A69D20741BF034A9A6002F14432DC
:100980009A607047003C02403B2A1908024A5369AA
:1009900043F0010353617047003C0240034A13785F
:1009A00003F07F0318431070704700BF173C0240EC
:1009B000044B1A7802F0EF021A701A78104318707C
:1009C000704700BF143C0240044B1A7802F0F30257
:1009D0001A701A7810431870704700BF143C024018
:1009E000024B5869C0F34710704700BF003C0240FB
:1009F000014B188880B27047163C0240014B1888A2
:100A000080B270471A3C0240014B188880B2704790
:100A1000163C0240014B188880B270471A3C0240D5
:100A2000024B1878AA3818BF01207047153C0240C5
:100A3000024B187800F00C00704700BF143C0240D5
:100A4000044B1A6909B1104301E022EA0000186161
:100A5000704700BF003C0240034BDB68034214BFF9
:100A600001200020704700BF003C0240014BD860CD
:100A7000704700BF003C02400E4BDA68D20310D42E
:100A8000DA68D1060FD4DA68D2050ED4DA6812F02B
:100A9000EF0F0CD1DB6813F0020F14BF0820092000
:100AA00070470120704706207047022070470720DA
:100AB000704700BF003C024007B509238DF807309E
:100AC000FFF7DAFF8DF807009DF80730012BF7D00C
:100AD0009DF8070003B05DF804FB70B5064641B110
:100AE000012908D002290CBF4FF400754FF440755E
:100AF00003E00D4601E04FF48075FFF7DDFF0928A4
:100B00001ED1104C236923F44073236121692943CA
:100B10002161236923F0F8032361236943F0020371
:100B20001E432661236943F480332361FFF7C4FF2A
:100B3000236923F002032361236923F0F80323616F
:100B400070BD00BF003C024010B50446FFF7B4FF83
:100B500044B1012C08D0022C0CBF4FF400734FF4A9
:100B6000407303E0234601E04FF48073092819D154
:100B70000D4C226922F440722261226913432361E1
:100B8000236943F4004343F004032361236943F4DE
:100B900080332361FFF790FF236923F4004323F0A0
:100BA0000403236110BD00BF003C024010B50446A1
:100BB000FFF782FF44B1012C08D0022C0CBF4FF488
:100BC00000734FF4407303E0234601E04FF4807359
:100BD000092815D10B4C226922F440722261226946
:100BE00013432361236943F004032361236943F41E
:100BF00080332361FFF760FF236923F0040323613F
:100C000010BD00BF003C024010B50446FFF754FF82
:100C100044B1012C08D0022C0CBF4FF400734FF4E8
:100C2000407303E0234601E04FF48073092815D197
:100C30000B4C226922F44072226122691343236122
:100C4000236943F400432361236943F48033236120
:100C5000FFF732FF236923F40043236110BD00BF77
:100C6000003C0240F8B5054616461F46FFF724FF34
:100C7000092814D10A4C236923F4407323612369A2
:100C800043F440732361236943F001032361C5E901
:100C90000067FFF711FF236923F001032361F8BD0B
:100CA000003C024070B505460E46FFF705FF0928D7
:100CB00013D10A4C236923F440732361236943F45D
:100CC00000732361236943F0010323612E60FFF762
:100CD000F3FE236923F00103236170BD003C024051
:100CE00070B505460E46FFF7E7FE092813D10A4CFA
:100CF000236923F440732361236943F480732361E0
:100D0000236943F0010323612E80FFF7D5FE236999
:100D100023F00103236170BD003C024070B505461D
:100D20000E46FFF7C9FE092811D1094C236923F4A7
:100D30004073236123692361236943F00103236125
:100D40002E70FFF7B9FE236923F00103236170BD04
:100D5000003C024038B504460D46FFF7ADFE0928B9
:100D600009D1054B18881DB180B220EA040001E0CA
:100D7000204380B2188038BD163C024038B5044686
:100D80000D46FFF799FE092809D1054B18881DB1BA
:100D900080B220EA040001E0204380B2188038BD10
:100DA0001A3C024038B504460D46FFF785FE092877
:100DB00009D1054B188815B1204380B202E080B2FA
:100DC00020EA0400188038BD163C024038B50446BD
:100DD0000D46FFF771FE092809D1054B188815B19A
:100DE000204380B202E080B220EA0400188038BDBF
:100DF0001A3C024010B50446FFF75EFE092804BF06
:100E0000014B1C7010BD00BF153C024070B506467A
:100E10000C461546FFF750FE092809D1054B1878F6
:100E200000F01F00304345EA000244EA0201197055
:100E300070BD00BF143C0240034A137843F0020324
:100E40001370FFF739BE00BF143C024008B5304BA9
:100E5000984206D10121084600F05EFA00210120E7
:100E600050E02C4B984206D10121022000F054FAA8
:100E70000021022046E0284B984206D1012104209F
:100E800000F04AFA002104203CE0244B984206D1AD
:100E90000121082000F040FA0021082032E0204B18
:100EA000984206D10121102000F036FA00211020CE
:100EB00028E01C4B984206D10121202000F02CFA9A
:100EC000002120201EE0184B984206D1012140202D
:100ED00000F022FA0021402014E0144B984206D181
:100EE0000121802000F018FA002180200AE0104B38
:100EF00098420BD101214FF4807000F00DFA0021CF
:100F00004FF48070BDE8084000F006BA08BD00BF8D
:100F1000000002400004024000080240000C0240B1
:100F2000001002400014024000180240001C024061
:100F3000002002402DE9F0430F6800234FF0010E1E
:100F400003260EFA03FC3CEA070230D15A0005687A
:100F500006FA02F4E443254005600D79D0F80080DC
:100F600005FA02F9013D49EA0808012DC0F80080A0
:100F700011D885682C4084604C798568944025435D
:100F80008560446824EA0C0444608C7945689C4080
:100F9000A4B22C434460C46806FA02F524EA0504AE
:100FA000C460CD79C46805FA02F22243C2600133FD
:100FB000102BC6D1BDE8F0834FF6FF73036000230A
:100FC000037143718371C371704782B04FF48033F2
:100FD0000193019B0B430193019BC361C161019B81
:100FE000C361C3690193C369019302B07047036988
:100FF000194214BF012000207047006980B2704779
:101000004369194214BF012000207047406980B233
:10101000704701837047418370470AB1018370476D
:10102000418370474161704743695940416170474E
:1010300001F00703C90800EB810010B59B00046AAA
:101040000F21994024EA01010162016A9A400A4392
:10105000026210BD0A4B1A68002142F001021A60B8
:1010600099601A6822F0847222F480321A60054A6C
:101070005A601A6822F480221A60D960704700BF53
:101080000038024010300024024B00221A70187001
:10109000704700BF02380240034A136823F0F80388
:1010A00043EAC0001060704700380240014B1860EE
:1010B000704700BF00004742064B002201281A700B
:1010C0001A7002D0042802D07047187070470522A9
:1010D0001A70704770380240014B1860704700BFAB
:1010E000800E474210B5029C40EA046001435B0851
:1010F000013B41EA821242EA0340014B586010BDB5
:1011000000380240014B1860704700BF6000474242
:101110000907034B41EA8010C3F88400704700BF01
:1011200000380240014B1860704700BF680047421A
:10113000014B1860704700BF4C004742034A936858
:1011400023F0EC6319430843906070470038024075
:10115000034A936823F0784319430843906070472B
:1011600000380240034A936823F003031843906059
:10117000704700BF00380240024B986800F00C0036
:10118000704700BF00380240034A936823F0F00321
:1011900018439060704700BF00380240034A9368CC
:1011A00023F4E05318439060704700BF00380240BA
:1011B000034A936823F4604343EAC0009060704799
:1011C000003802401D4A936803F00C03042B10B54D
:1011D00003D0082B03D01A4B18E01A4B16E05168C5
:1011E000536811F4800F03F03F03516814BF154A90
:1011F000134AB2FBF3F3114A5268C2F30142C1F33E
:10120000881101324B435200B3FBF2F30B4A0360E7
:1012100093680D49C3F30313CC5C0368E340436058
:101220009468C4F382240C5D23FA04F48460926809
:10123000C2F342328A5CD340C36010BD0038024022
:101240000024F40000127A002800002000F440730B
:10125000B3F5407F084A08D1936820F0704123F429
:10126000F81321F440710B439360136FC0F30B002C
:1012700018431067704700BF00380240014B1860E8
:10128000704700BF3C0E4742014B1860704700BFDB
:10129000400E4742014B1860704700BF5C01474257
:1012A000044B1A6B09B1104301E022EA00001863F5
:1012B000704700BF00380240044B5A6B09B110431D
:1012C00001E022EA00005863704700BF0038024086
:1012D000044B9A6B09B1104301E022EA00009863C5
:1012E000704700BF00380240044B1A6C09B110432C
:1012F00001E022EA00001864704700BF0038024095
:10130000044B5A6C09B1104301E022EA0000586412
:10131000704700BF00380240044B1A6909B11043FE
:1013200001E022EA00001861704700BF0038024067
:10133000044B5A6909B1104301E022EA00005861E8
:10134000704700BF00380240044B9A6909B110434E
:1013500001E022EA00009861704700BF00380240B7
:10136000044B1A6A09B1104301E022EA0000186236
:10137000704700BF00380240044B5A6A09B110435D
:1013800001E022EA00005862704700BF00380240C6
:10139000044B1A6D09B1104301E022EA0000186500
:1013A000704700BF00380240044B5A6D09B110432A
:1013B00001E022EA00005865704700BF0038024093
:1013C000044B9A6D09B1104301E022EA00009865D0
:1013D000704700BF00380240044B1A6E09B1104339
:1013E00001E022EA00001866704700BF00380240A2
:1013F000044B5A6E09B1104301E022EA000058661E
:10140000704700BF00380240044B1A7809B11043FE
:1014100001E022EA00001870704700BF0D3802405A
:101420004209012A074B01D11B6803E0022A0CBFC5
:101430001B6F5B6F00F01F0023FA00F000F001004B
:10144000704700BF0038024007B5002301933120E8
:10145000FFF7E6FF019B01330193019BB3F5A04F1A
:1014600001D00028F3D03120FFF7DAFF003018BF99
:10147000012003B05DF804FB024A536F43F0807310
:101480005367704700380240034BDB68184214BFB3
:1014900001200020704700BF00380240014B187047
:1014A000704700BF0E38024008B5144B984208D16F
:1014B00001214FF40010FFF753FF00214FF40010FB
:1014C00016E00F4B984208D101214FF48000FFF73E
:1014D00047FF00214FF480000AE00A4B98420BD1ED
:1014E00001214FF40000FFF73BFF00214FF4000003
:1014F000BDE80840FFF734BF08BD00BF00540040FE
:1015000000580040005C00407FB5868826F03F060A
:101510000446360468460D46360CFFF753FE029A21
:101520002C48B2FBF0F081B20E43A68023882A4EED
:1015300023F001031B041B0C23802B68B3420AD841
:101540005B000131B2FBF3F39BB2032B89B298BF6E
:101550000423218423E0EE884BF6FF718E421BBFEB
:1015600019214B4303EB4303B2FBF3F315BF9BB2CB
:10157000B2FBF3F343F480439BB2C3F30B020AB90B
:1015800043F001034FF4967101FB00F24FF47A71BE
:1015900092FBF1F2013292B243F400432284A3831E
:1015A0002388A9886A899BB243F00103238023889A
:1015B00023F4816323F002031B040A431B0C13432F
:1015C0009BB22380AA892B8913439BB2238104B049
:1015D00070BD00BF40420F00A086010041F2883379
:1015E0000360002383804BF6FF72038143814FF435
:1015F0008043C28083817047038819B19BB243F056
:10160000010303E023F001031B041B0C038070475C
:10161000038819B19BB243F4807303E023F4807311
:101620001B041B0C03807047038819B19BB243F461
:10163000007303E023F400731B041B0C038070474A
:1016400012B141F0010101E001F0FE0189B2018215
:101650007047038819B19BB243F4806303E023F41D
:1016600080631B041B0C0380704783899BB201F0CD
:10167000FE0123F0FE030B4383817047838919B178
:101680009BB243F0010303E023F001031B041B0C96
:1016900083817047038819B19BB243F0400303E094
:1016A00023F040031B041B0C03807047038829B1FF
:1016B0006FEA43436FEA53439BB201E0C3F30E0367
:1016C00003807047038819B99BB243F0800303E09D
:1016D00023F080031B041B0C03807047838BB1F540
:1016E000804F1BBF23F480431B049BB21B0C08BF1D
:1016F00043F48043838370470388B1F5005F15BFCF
:1017000023F400539BB21B0443F4005318BF1B0C7B
:1017100003807047038819B19BB243F0100303E0C4
:1017200023F010031B041B0C0380704701827047D9
:10173000008AC0B27047038819B19BB243F480534A
:1017400003E023F480531B041B0C038070470388C1
:10175000B1F5006F15BF23F400639BB21B0443F483
:10176000006318BF1B0C03807047FFF7F0BF0388AE
:1017700019B19BB243F0200303E023F020031B04C4
:101780001B0C03807047008BC0F3072070478388D1
:1017900019B19BB243F4006303E023F400631B041C
:1017A0001B0C83807047838819B19BB243F480532C
:1017B00003E023F480531B041B0C8380704782B02A
:1017C000002301930190019B19440191019B18880A
:1017D00080B202B0704783889BB20AB1194301E01E
:1017E00023EA010181807047838A008B9BB243EA20
:1017F000004321F07F4203EA0200431A5842584155
:101800007047838A008B9BB243EA004020F07F4000
:10181000704782B00023009301930B0F0190009357
:10182000009B21F07F4113B1019B143302E0019B27
:10183000090C18330193019B1B68194214BF012046
:10184000002002B07047C94389B281827047838803
:10185000808A80B208409BB206D003F4E06313EAAA
:10186000114314BF012000207047C94389B281820F
:10187000704700BF08B5154B98420BD101214FF4BA
:101880008050FFF779FD00214FF48050BDE80840FB
:10189000FFF772BD0E4B984208D101214FF48040F2
:1018A000FFF75EFD00214FF480400AE0094B9842AB
:1018B0000BD101214FF40040FFF752FD00214FF4FE
:1018C0000040BDE80840FFF74BBD08BD00300140B7
:1018D00000380040003C004003880A8810B503F43B
:1018E00041544B8813438A881343CA8813430A8997
:1018F00013434A8913438A891343CA8913432343F1
:101900009BB20380838B23F400631B041B0C838333
:101910000B8A038210BD838B23F47B6323F00F03B8
:101920001B041B0C8383022303848B68F0B5848B18
:10193000022BA4B239D0294F8A88002ABA6814BF72
:101940004FF0020E4FF0010E120242BFBA6822F4AD
:101950000002BA60D7F88420D7F884507E68204F00
:10196000C2F3881206F03F06B7FBF6F65643CA8864
:10197000B2F5007FC5F302754FF00A02B6FBF5F52C
:101980000EBF2D0A4FEA4E16B5FBF6F56A43B2FBC1
:10199000F3F305330A229BB2B3FBF2F303F0010227
:1019A0001202C3F34F0392B200E000229D1EADB2BB
:1019B000FE2D24BF002202231343CA8813439BB287
:1019C00003840B888A881C434B8844F400642343B7
:1019D00013438A8913439BB28383F0BD00380240CE
:1019E00000127A000023038043808380C380038138
:1019F00043818381C381072303827047002302222E
:101A0000038043808380C380826083817047038822
:101A100019B19BB243F0400303E023F040031B04E1
:101A20001B0C03807047838B19B19BB243F4806316
:101A300003E023F480631B041B0C8383704703883B
:101A400023F400631B041B0C038003889BB219431F
:101A5000018070470388B1F5804F15BF23F48043A0
:101A60009BB21B0443F4804318BF1B0C03807047D8
:101A70004FF6FF63994203880BBF23F480739BB238
:101A80001B0443F4807308BF1B0C038070478388DA
:101A900019B19BB243F0040303E023F004031B04D9
:101AA0001B0C83807047838819B19BB243F01003ED
:101AB00003E023F010031B041B0C83807047838B0F
:101AC00023F47B6323F00F031B0430B51B0C0C883D
:101AD00083830223038424F40074828B8B88A4B252
:101AE000002C4C8892B242EA040242F4006243EABB
:101AF00002038A8943EA02030CBF4FF48075002574
:101B00009BB22B43838330BD808980B27047818133
:101B10007047038819B19BB243F4005303E023F4E8
:101B200000531B041B0C0380704703889BB243F4D3
:101B3000805303807047012914BF008B808A80B2D4
:101B40007047008A80B2704783889BB20AB11943FC
:101B500001E023EA0101818070470123090903FAAA
:101B600001F1838889B29BB20AB1194301E023EAEB
:101B70000101818070470389194214BF01200020B0
:101B80007047C94389B20181704710B584880389C1
:101B9000012201F00F009BB202FA00F01840A4B23B
:101BA00005D009098A40144214BF0120002010BD4D
:101BB00001F00F01012303FA01F1C94389B2018148
:101BC000704700BF036823F0010303600023036034
:101BD00043608360C360036121234361294B9842C2
:101BE00017D0294B98421BD0284B984220D0284B25
:101BF000984225D0274B98422AD0274B98422ED086
:101C0000264B984232D0264B984236D0254B9842EC
:101C100003D13D2243F8082C7047234B984204D14E
:101C20004FF4746243F8202C7047204B984204D143
:101C30004FF4741243F8382C70471D4B984204D16E
:101C40004FF0746243F8502C70471A4B984203D1FE
:101C5000194A43F8642C7047184B984203D1184A2C
:101C600043F87C2C7047174B984203D1164A43F82F
:101C7000942C7047154B984203D14FF03D5243F8D6
:101C8000AC2C704710600240286002404060024067
:101C9000586002407060024088600240A0600240CC
:101CA000B860024010640240286402404064024070
:101CB00058640240706402403D0000208864024085
:101CC000400F0020A064024000003D20B8640240A4
:101CD0000268134B10B513400C68CA6814434A6974
:101CE00014438A691443CA6914430A6A14434A6A4A
:101CF00014438A6A14434A6B14438A6B2243134386
:101D000003604369CC6A23F007020B6B2343134340
:101D100043610B6943604B6883608B68C36010BD8F
:101D20003F801CF00023036043608360C360036155
:101D300043618361C361036243628362C36203637D
:101D4000436383637047036811B143F0010301E00B
:101D500023F0010303607047036811B143F40043AB
:101D600001E023F4004303607047036811B143F0BE
:101D7000200301E023F020030360704741607047B7
:101D8000406880B27047036812B143F4002301E059
:101D900023F40023036001617047036811B143F429
:101DA000802301E023F48023036070470AB10161BE
:101DB0007047C16070470068C0F3C040704700685A
:101DC00000F001007047406900F0380070470A4B8E
:101DD0000A4A10B50A4CA04294BF184610468B0020
:101DE0004CBF4368036821F0F02121F082111942B1
:101DF00014BF0120002010BD0060024000640240BA
:101E00000F6402400B0611D543694AB143F08003C9
:101E10008029436114D0036801F01E0119430EE0CC
:101E200023F080038029436104D17047802907D0C3
:101E3000002AF0D1036801F01E0123EA01010160CC
:101E40007047114A114B10B5114CA04294BF1C466B
:101E5000144621F0F02323F0C3122AB1006800F0E9
:101E60001E0000EAD12202E0406900F080028900F1
:101E70004CBF6068206823F08213184002D0101C09
:101E800018BF012010BD00BF006402400060024086
:101E90000F64024010B5084A084B094CA04294BF99
:101EA0001846104611F0005F21F0F02121F0821158
:101EB00014BFC160816010BD006402400060024038
:101EC0000F640240FFF7E6BF0120704737B50023DB
:101ED000012102208DF804108DF805108DF80630D0
:101EE0008DF80730064CFFF7DBF902A9102541F801
:101EF000085D2046FFF71EF8658303B030BD00BFC4
:101F00000004024007B501210220FFF7C9F90123AF
:101F10008DF8043002A900238DF805308DF80630C5
:101F20008DF80730102341F8083D0348FFF702F809
:101F300003B05DF804FB00BF00040240024B102216
:101F40005A8300F083B900BF00040240F8B5314C59
:101F50004FF4961307460E46154623604FF40031A2
:101F60002846FFF756FC30B123685A1E2260002B2A
:101F7000F4D10120F8BD01212846FFF749FB4FF4B9
:101F80008053236024492846FFF72EFC28B9236894
:101F90005A1E2260002BF5D1EBE7002220212846B3
:101FA000FFF74EFB4FF4805323601C492846FFF790
:101FB0001BFC28B923685A1E2260002BF5D1D8E7F4
:101FC00039462846FFF7B2FB4FF48053236014498B
:101FD0002846FFF709FC28B923685A1E2260002B07
:101FE000F5D1C6E731462846FFF7A0FB4FF496131C
:101FF00023600C492846FFF70CFC28B923685A1EB9
:102000002260002BF5D1B4E728460121FFF70CFB35
:102010000020F8BD38000020010003008200070006
:102020008000070004000010024A01210720FFF78A
:102030008DBF00BF0058004038B50B4A0B4D03213F
:102040000720FFF783FF00235C1CE95C064AE0B22F
:10205000FFF77CFF062C2346F6D1034A0221072016
:10206000BDE83840FFF772BF00580040302B000831
:1020700030B5012185B04FF48000FFF735F900231A
:10208000ADF804304BF6FF73ADF806303323ADF8EE
:1020900008304FF48063ADF80A3004AD4FF480434C
:1020A000094CADF80C304CF2503345F8103D204649
:1020B000FFF7FAF929462046FFF726FA01212046C4
:1020C000FFF79AFA05B030BD0058004030B5174C04
:1020D00085B0054601214FF48040FFF705F9204601
:1020E000FFF7C8FB0023ADF8023003230295ADF8DB
:1020F00004300F4D0823ADF80C3069464FF40073DF
:102100002046ADF80030ADF80630FFF704FC694614
:102110002846FFF7D4FC20460121FFF784FC01216B
:102120002846FFF780FC05B030BD00BF00380040F6
:1021300000340040F7B501210620FFF7B1F802ADE9
:1021400001238DF806304FF44063304C45F8083DCC
:1021500002270026294620468DF804708DF8057068
:102160008DF80760FEF7E6FE204604220A21FEF7FE
:102170005FFF042220460B21FEF75AFF03238DF850
:10218000053029464FF48053204600938DF80470A3
:102190008DF806608DF80760FEF7CCFE4FF48043A3
:1021A000294620460093FEF7C5FE4FF4005329460A
:1021B00020460093FEF7BEFE4FF40043294620461A
:1021C0000093FEF7B7FE204605220C21FEF730FFF4
:1021D000204605220D21FEF72BFF204605220F2168
:1021E000FEF726FF052220460E2104F58064FEF747
:1021F0001FFF4023294620460093FEF79BFE052241
:1022000006212046FEF714FF03B0F0BD0004024093
:1022100008B5FFF75BFFFFF72BFF0020FFF73AF849
:102220000120FEF77FFFFFF785FF00F055F8064B12
:1022300010221A834CF2503300BF013BFCD1BDE8A1
:102240000840FFF7F9BE00BF000402401D4B10B567
:102250004FF48044C3F8804000214FF40010FFF792
:102260001FF80020FFF716F80020FEF75BFF20465E
:102270000021FFF739F8144C14480021FFF7D3FB75
:1022800000211348FFF7CFFB00212046FFF75BFD3D
:102290002046183CFFF796FC00212046FFF753FD2F
:1022A00020460C4CFFF78EFC00212046FFF7A4F9D6
:1022B0002046FFF7F9F800214FF48000BDE81040F8
:1022C000FFF712B800E100E0706002400038004003
:1022D00000340040005800402DE9F74FDFF87881C6
:1022E000514DDFF87891514F514C01214FF40010BE
:1022F000FEF7D6FF00214046FFF725FD4046FFF7D9
:1023000061FC4C4B6B604C4BAB604023EB60082393
:102310002B6101934FF40063EB614FF400530026EF
:102320004FF4806B2B624FF4003A4FF480732946D0
:1023300040466B622E606E61C5F818B0EE622E6387
:102340006E63AE63C5F828A0FFF7C2FC40460122C9
:102350008621FFF757FD012248460221FFF7F4FBD3
:1023600031463846FFF7EFFC3846FFF72BFC334B7E
:10237000E6604FF0C06284E80C00314BA360019B23
:1023800023614FF40063E3614FF40053236221465D
:102390004FF48073384663626661C4F818B0E66231
:1023A00026636663A663C4F828A0FFF791FC0122A8
:1023B0009E213846FFF726FD22484FF0010B0E23E1
:1023C000037080F801B0867080F803B01E4EFEF7EF
:1023D00025FA1E4B4FF48042C3F8802059465A46D6
:1023E0003046FFF7B1FB1A4B134A1A60194B144AD7
:1023F0001A6029464046FFF76BFC21463846FFF736
:1024000067FC59464046FFF79EFC59463846FFF7A1
:102410009AFC59464846FFF706FB5946304603B03A
:10242000BDE8F04FFFF7FFBA984600205860024021
:10243000D44600200C3800404C4600200C340040AC
:102440003C460020384600200034004000E100E017
:102450001447002010470020706002400038004000
:1024600008B54FF0C0511448FFF7B1FC70B1134BE1
:102470001968134B18680831083004230022FDF74F
:10248000E7FF4FF0C0510C48FFF71CFD4FF0A05183
:102490000948FFF79CFC70B10849094809680068C1
:1024A00004230122FDF7D4FF4FF0A0510248BDE8FC
:1024B0000840FFF707BD08BD5860024014470020E0
:1024C0001047002010B5084CC0430A44914208D080
:1024D00011F8013B4340DBB254F8233083EA10206B
:1024E000F4E7C04310BD00BF382B000843780B4110
:1024F000DB0701D4032310E0012914D015D30229EE
:1025000018D1838801339BB242F2CE32934283804A
:1025100005D9B0F80E3113B10523037070470723B6
:102520004370202305E0417001E00223437083786B
:10253000013B837083782BB901220270A0F80C3123
:10254000C37183717047037810B50A46044613B10E
:10255000012B03D03FE0FFF7C9FF3CE0022902D185
:102560000323037037E0B0F80C311844C1791143EC
:10257000C171A2790132D2B2082AA27129D10133E4
:102580009BB20020B3F5827FA071A4F80C311DD15D
:102590004FF48072E11DFFF795FF94F8083194F82D
:1025A00007211B0443EA026394F80A21134394F8B9
:1025B000092143EA022398420CBF02200420B4F808
:1025C0000E3120700133A4F80E3104E02344D87199
:1025D00001E04900C171207810BD00BF002103E077
:1025E0000A4B5B584350043109480A4B42189A423F
:1025F000F6D3094A02E0002342F8043B074B9A4213
:10260000F9D3FDF7D5FD00F04DF87047702F0008A5
:1026100000000020700400207004002060470020AB
:10262000FEE77047704770472DE9F8430746884634
:10263000FEF788F9F320FEF719FA174EDFF85C90E1
:10264000002456F82420D9F8A830144D9A4203D11A
:102650000221E000FEF741FA01340C2CF1D1DFF841
:1026600040903C46E31B984514D954F8041BD5F818
:10267000A8000A4EFEF716FBD5F8A830D9F80420BA
:1026800004339342C5F8A830ECD3022333700123FE
:1026900086F8AC30BDE8F883002B000870040020F9
:1026A000180000202DE9F04F46F2A81585B000BFB4
:1026B000013DFCD1FDF776FFFDF786FFB049B14A39
:1026C000B14E4FF480634B834FF400730B832B4662
:1026D000AE4D47F60154013C25D0106910F400605E
:1026E0001FD117697F0501D50346F4E7286910F06B
:1026F0000800F9D0306910F00200F5D0106910F42C
:102700000050F1D0106910F40070EDD0106910F491
:102710008040E9D0106910F48050E5D008690004C9
:1027200053D40023D7E743F698229342984C94BFA2
:1027300001230023A372924B4FF400725A830BD9EA
:102740004FF400621A834FF480521A83FDF714FF8E
:1027500004F1AD00FEF746F8894B4FF4806200218A
:102760001A83E1804FF4805159835A83A37AABB91D
:10277000874A82F8AC30864DD4F89030D4F88C205B
:102780009B1A590600F0CF8095F8AC30002B40F032
:10279000CA80AB7A002B40F0C68018E0784B4FF42B
:1027A00000625A834FF480525A834FF400725A8366
:1027B0004FF480625A83FFF737FCFFF7BFFB46F206
:1027C000A81400BF013CFCD1D0E0013383E7D5F869
:1027D0008C307048EA18013303F07F03117BC5F891
:1027E0008C30FFF7B0FE02380328C5D8DFE800F0D0
:1027F0000242454D664D208905F2C11700F03F00A9
:1028000001234FF4807205F1B50107EB002023701E
:10281000FDF794FD26890136B6B2268116F03F06F3
:102820001CD103234FF4804138462B70FFF7FCFE88
:10283000FF2385F8AF30202385F8B0300423C5F896
:10284000906085F8AE60A5F8B260C5F88C6085F838
:102850009C60C5F8A06085F8A4308CE7002385F85B
:10286000AE30A5F8B230FF2385F8AF30202385F8CD
:10287000B03080E74FF4007201E04FF48062404BCB
:102880001A83012384F8AC3075E70123A372424B0D
:102890003B4DDA68D3F80890D4F8A8300092C9EB21
:1028A00003030193FEF74EF8F320FEF7DFF8C84666
:1028B000009B019AC9EB0306C9EB08039A42464400
:1028C0007FF659AF00274FF4006A344B53F8273096
:1028D0009E4219D14FF480524FF400734FF4806B35
:1028E000A5F81AA002216A83F80003926B83029371
:1028F000A5F81AB0FEF7F1F8039A029BA5F818A004
:102900002A832B83A5F818B001370C2FDDD1224B79
:102910009B68043B9E423FF62EAF58F8041B30469E
:10292000FEF7C0F9C4E794F8AC30002B3FF41EAFBB
:10293000174B02221A70144B1B699A07FBD4124BD7
:102940001B699B07FBD50E4B4FF400625A834FF473
:1029500080525A834FF400725A834FF480625A8334
:10296000FDF732FE0023E380A372FFE6FDF7F2FEDF
:10297000094BD868FDF722FF204605B0BDE8F08F6F
:10298000000002400018024000080240000C024013
:10299000700400201E05002018000020002B0008F5
:1029A00038B50B4D0B4C0C492A4604F1AD0000F034
:1029B00019F82A46094904F1AE0000F013F82A4636
:1029C00004F10C000649BDE8384000F00BB800BF28
:1029D000000000207004002023260008252600089F
:1029E000272600080130A0E110402DE90010A0E1E9
:1029F0000300A0E1010000EB1040BDE81EFF2FE145
:102A000010402DE90230A0E10120A0E10010A0E17A
:102A10000200A0E3010000EB1040BDE81EFF2FE123
:102A2000D0C09FE5F0412DE900409CE548C194E508
:102A300000005CE353CF840204E09CE548C18405B8
:102A40001F005EE30160A0E10050A0E10280A0E170
:102A50000370A0E101108ED20F0000DA98309FE5DC
:102A6000000053E32100000A190EA0E30000A0E1DA
:102A700000C050E21D00000A0000A0E30110A0E326
:102A800000E0A0E1483194E504008CE500308CE5DD
:102A900048C184E588018CE58C018CE5000055E394
:102AA0000500001A0000A0E302E08EE204108CE5AD
:102AB0000E618CE7F041BDE81EFF2FE10100A0E3AD
:102AC0000E418CE0888084E588319CE5102EA0E1E1
:102AD000020083E188018CE5087184E5020055E37A
:102AE0008C319C05022083018C218C05ECFFFFEAD0
:102AF0000000E0E3EEFFFFEA382F000800000000CE
:102B000000000008004000080080000800C0000825
:102B10000000010800000208000004080000060888
:102B20000000080800000A0800000C0800000E0859
:102B30000040090000030000000000009630077705
:102B40002C610EEEBA51099919C46D078FF46A70A1
:102B500035A563E9A395649E3288DB0EA4B8DC79C1
:102B60001EE9D5E088D9D2972B4CB609BD7CB17E41
:102B7000072DB8E7911DBF906410B71DF220B06A11
:102B80004871B9F3DE41BE847DD4DA1AEBE4DD6D21
:102B900051B5D4F4C785D38356986C13C0A86B6421
:102BA0007AF962FDECC9658A4F5C0114D96C066341
:102BB000633D0FFAF50D088DC8206E3B5E10694C21
:102BC000E44160D5727167A2D1E4033C47D4044B61
:102BD000FD850DD26BB50AA5FAA8B5356C98B24241
:102BE000D6C9BBDB40F9BCACE36CD832755CDF45C1
:102BF000CF0DD6DC593DD1ABAC30D9263A00DE51F1
:102C00008051D7C81661D0BFB5F4B42123C4B356E0
:102C10009995BACF0FA5BDB89EB802280888055F60
:102C2000B2D90CC624E90BB1877C6F2F114C6858C0
:102C3000AB1D61C13D2D66B69041DC760671DB01AE
:102C4000BC20D2982A10D5EF8985B1711FB5B60680
:102C5000A5E4BF9F33D4B8E8A2C9077834F9000FC0
:102C60008EA8099618980EE1BB0D6A7F2D3D6D0860
:102C7000976C6491015C63E6F4516B6B62616C1C50
:102C8000D83065854E0062F2ED95066C7BA5011B80
:102C9000C1F4088257C40FF5C6D9B06550E9B71220
:102CA000EAB8BE8B7C88B9FCDF1DDD62492DDA15E0
:102CB000F37CD38C654CD4FB5861B24DCE51B53A00
:102CC0007400BCA3E230BBD441A5DF4AD795D83D00
:102CD0006DC4D1A4FBF4D6D36AE96943FCD96E3440
:102CE000468867ADD0B860DA732D0444E51D033320
:102CF0005F4C0AAAC97C0DDD3C710550AA41022730
:102D000010100BBE86200CC925B56857B3856F20FF
:102D100009D466B99FE461CE0EF9DE5E98C9D9295F
:102D20002298D0B0B4A8D7C7173DB359810DB42E9F
:102D30003B5CBDB7AD6CBAC02083B8EDB6B3BF9AEB
:102D40000CE2B6039AD2B1743947D5EAAF77D29D77
:102D50001526DB048316DC73120B63E3843B649457
:102D60003E6A6D0DA85A6A7A0BCF0EE49DFF099357
:102D700027AE000AB19E077D44930FF0D2A30887C7
:102D800068F2011EFEC206695D5762F7CB67658077
:102D900071366C19E7066B6E761BD4FEE02BD38977
:102DA0005A7ADA10CC4ADD676FDFB9F9F9EFBE8ED7
:102DB00043BEB717D58EB060E8A3D6D67E93D1A117
:102DC000C4C2D83852F2DF4FF167BBD16757BCA6F7
:102DD000DD06B53F4B36B248DA2B0DD84C1B0AAF97
:102DE000F64A0336607A0441C3EF60DF55DF67A817
:102DF000EF8E6E3179BE69468CB361CB1A8366BCA7
:102E0000A0D26F2536E2685295770CCC03470BBBF6
:102E1000B91602222F260555BE3BBAC5280BBDB2F6
:102E2000925AB42B046AB35CA7FFD7C231CFD0B596
:102E30008B9ED92C1DAEDE5BB0C2649B26F263EC88
:102E40009CA36A750A936D02A906099C3F360EEB96
:102E50008567077213570005824ABF95147AB8E256
:102E6000AE2BB17B381BB60C9B8ED2920DBED5E536
:102E7000B7EFDC7C21DFDB0BD4D2D38642E2D4F186
:102E8000F8B3DD686E83DA1FCD16BE815B26B9F616
:102E9000E177B06F7747B718E65A0888706A0FFF76
:102EA000CA3B06665C0B0111FF9E658F69AE62F836
:102EB000D3FF6B6145CF6C1678E20AA0EED20DD736
:102EC0005483044EC2B30339612667A7F71660D056
:102ED0004D476949DB776E3E4A6AD1AEDC5AD6D996
:102EE000660BDF40F03BD83753AEBCA9C59EBBDEB6
:102EF0007FCFB247E9FFB5301CF2BDBD8AC2BACA66
:102F00003093B353A6A3B4240536D0BA9306D7CDD5
:102F10002957DE54BF67D9232E7A66B3B84A61C4F5
:102F2000021B685D942B6F2A37BE0BB4A18E0CC3B5
:102F30001BDF055A8DEF022D400000200DC0A0E1DF
:102F4000F8DF2DE904B04CE228D04BE2F06F9DE8A9
:102F50001EFF2FE10DC0A0E1F8DF2DE904B04CE227
:102F600028D04BE2F06F9DE81EFF2FE1000000002B
:102F7000000000000095BA0A0000000000000000F8
:102F80000102030406070809401F0000FCFF0F08A8
:102F9000000008080080000800000000010203048F
:102FA000010203040607080900C012000000000027
:102FB000000000002C03002094030020FC030020EC
:102FC0000000000000000000000000000000000001
:102FD00000000000000000000000000000000000F1
:102FE00000000000000000000000000000000000E1
:102FF00000000000000000000000000000000000D1
:1030000000000000000000000000000000000000C0
:1030100000000000000000000000000000000000B0
:1030200000000000000000000000000000000000A0
:103030000000000000000000000000000000000090
:103040000000000000000000000000000000000080
:10305000000000000000000001000000000000006F
:103060000E33CDAB34126DE6ECDE05000B00000034
:103070000000000000000000000000000000000050
:103080000000000000000000000000000000000040
:103090000000000000000000000000000000000030
:1030A0000000000000000000000000000000000020
:04000005080025DDED
:00000001FF
